{"abi":[{"type":"function","name":"createPool","inputs":[{"name":"name","type":"string","internalType":"string"},{"name":"description","type":"string","internalType":"string"}],"outputs":[{"name":"","type":"address","internalType":"address"}],"stateMutability":"nonpayable"},{"type":"function","name":"getPools","inputs":[],"outputs":[{"name":"","type":"address[]","internalType":"address[]"}],"stateMutability":"view"},{"type":"function","name":"pools","inputs":[{"name":"","type":"uint256","internalType":"uint256"}],"outputs":[{"name":"","type":"address","internalType":"address"}],"stateMutability":"view"},{"type":"event","name":"PoolCreated","inputs":[{"name":"pool","type":"address","indexed":true,"internalType":"address"},{"name":"creator","type":"address","indexed":true,"internalType":"address"},{"name":"name","type":"string","indexed":false,"internalType":"string"}],"anonymous":false}],"bytecode":{"object":"0x6080604052348015600e575f5ffd5b506125798061001c5f395ff3fe608060405234801561000f575f5ffd5b506004361061003f575f3560e01c80635ea81a3214610043578063673a2a1f14610073578063ac4afa3814610091575b5f5ffd5b61005d60048036038101906100589190610441565b6100c1565b60405161006a91906104f6565b60405180910390f35b61007b610223565b60405161008891906105c6565b60405180910390f35b6100ab60048036038101906100a69190610619565b6102ad565b6040516100b891906104f6565b60405180910390f35b5f5f6040516100cf906102e7565b604051809103905ff0801580156100e8573d5f5f3e3d5ffd5b5090508073ffffffffffffffffffffffffffffffffffffffff1663906571473386866040518463ffffffff1660e01b8152600401610128939291906106a4565b5f604051808303815f87803b15801561013f575f5ffd5b505af1158015610151573d5f5f3e3d5ffd5b505050505f81908060018154018082558091505060019003905f5260205f20015f9091909190916101000a81548173ffffffffffffffffffffffffffffffffffffffff021916908373ffffffffffffffffffffffffffffffffffffffff1602179055503373ffffffffffffffffffffffffffffffffffffffff168173ffffffffffffffffffffffffffffffffffffffff167f497623963d38fe124cbfd29097a076d20afd5f5c879d864c597b14ed16a70e558660405161021191906106e7565b60405180910390a38091505092915050565b60605f8054806020026020016040519081016040528092919081815260200182805480156102a357602002820191905f5260205f20905b815f9054906101000a900473ffffffffffffffffffffffffffffffffffffffff1673ffffffffffffffffffffffffffffffffffffffff168152602001906001019080831161025a575b5050505050905090565b5f81815481106102bb575f80fd5b905f5260205f20015f915054906101000a900473ffffffffffffffffffffffffffffffffffffffff1681565b611e3c8061070883390190565b5f604051905090565b5f5ffd5b5f5ffd5b5f5ffd5b5f5ffd5b5f601f19601f8301169050919050565b7f4e487b71000000000000000000000000000000000000000000000000000000005f52604160045260245ffd5b6103538261030d565b810181811067ffffffffffffffff821117156103725761037161031d565b5b80604052505050565b5f6103846102f4565b9050610390828261034a565b919050565b5f67ffffffffffffffff8211156103af576103ae61031d565b5b6103b88261030d565b9050602081019050919050565b828183375f83830152505050565b5f6103e56103e084610395565b61037b565b90508281526020810184848401111561040157610400610309565b5b61040c8482856103c5565b509392505050565b5f82601f83011261042857610427610305565b5b81356104388482602086016103d3565b91505092915050565b5f5f60408385031215610457576104566102fd565b5b5f83013567ffffffffffffffff81111561047457610473610301565b5b61048085828601610414565b925050602083013567ffffffffffffffff8111156104a1576104a0610301565b5b6104ad85828601610414565b9150509250929050565b5f73ffffffffffffffffffffffffffffffffffffffff82169050919050565b5f6104e0826104b7565b9050919050565b6104f0816104d6565b82525050565b5f6020820190506105095f8301846104e7565b92915050565b5f81519050919050565b5f82825260208201905092915050565b5f819050602082019050919050565b610541816104d6565b82525050565b5f6105528383610538565b60208301905092915050565b5f602082019050919050565b5f6105748261050f565b61057e8185610519565b935061058983610529565b805f5b838110156105b95781516105a08882610547565b97506105ab8361055e565b92505060018101905061058c565b5085935050505092915050565b5f6020820190508181035f8301526105de818461056a565b905092915050565b5f819050919050565b6105f8816105e6565b8114610602575f5ffd5b50565b5f81359050610613816105ef565b92915050565b5f6020828403121561062e5761062d6102fd565b5b5f61063b84828501610605565b91505092915050565b5f81519050919050565b5f82825260208201905092915050565b8281835e5f83830152505050565b5f61067682610644565b610680818561064e565b935061069081856020860161065e565b6106998161030d565b840191505092915050565b5f6060820190506106b75f8301866104e7565b81810360208301526106c9818561066c565b905081810360408301526106dd818461066c565b9050949350505050565b5f6020820190508181035f8301526106ff818461066c565b90509291505056fe6080604052348015600e575f5ffd5b50611e208061001c5f395ff3fe6080604052600436106100c5575f3560e01c80637284e4161161007e5780639ace38c2116100585780639ace38c21461040d578063a26e11861461044e578063e088747b1461046a578063e4725f02146104925761025b565b80637284e4161461039157806383920e90146103bb57806390657147146103e55761025b565b806302d05d3f1461025f5780630544c5b91461028957806306fdde03146102c557806309e69ede146102ef57806312065fe01461032b57806341676f15146103555761025b565b3661025b5760056040518060c0016040528060058054905081526020013373ffffffffffffffffffffffffffffffffffffffff1681526020013481526020016040518060400160405280600f81526020017f446972656374205472616e736665720000000000000000000000000000000000815250815260200142815260200160011515815250908060018154018082558091505060019003905f5260205f2090600602015f909190919091505f820151815f01556020820151816001015f6101000a81548173ffffffffffffffffffffffffffffffffffffffff021916908373ffffffffffffffffffffffffffffffffffffffff1602179055506040820151816002015560608201518160030190816101df919061135c565b506080820151816004015560a0820151816005015f6101000a81548160ff02191690831515021790555050503373ffffffffffffffffffffffffffffffffffffffff167fd7f601954af96c42bf2a2a63735711dc45868e84ab977017ba3249f742b2133a346040516102519190611494565b60405180910390a2005b5f5ffd5b34801561026a575f5ffd5b506102736104ba565b60405161028091906114ff565b60405180910390f35b348015610294575f5ffd5b506102af60048036038101906102aa9190611553565b6104df565b6040516102bc9190611598565b60405180910390f35b3480156102d0575f5ffd5b506102d96104fc565b6040516102e69190611607565b60405180910390f35b3480156102fa575f5ffd5b5061031560048036038101906103109190611553565b610587565b6040516103229190611598565b60405180910390f35b348015610336575f5ffd5b5061033f6105a4565b60405161034c9190611627565b60405180910390f35b348015610360575f5ffd5b5061037b60048036038101906103769190611553565b6105ab565b6040516103889190611598565b60405180910390f35b34801561039c575f5ffd5b506103a56105fd565b6040516103b29190611607565b60405180910390f35b3480156103c6575f5ffd5b506103cf610689565b6040516103dc91906117f6565b60405180910390f35b3480156103f0575f5ffd5b5061040b60048036038101906104069190611915565b610801565b005b348015610418575f5ffd5b50610433600480360381019061042e91906119c7565b610949565b604051610445969594939291906119f2565b60405180910390f35b61046860048036038101906104639190611a58565b610a41565b005b348015610475575f5ffd5b50610490600480360381019061048b9190611a9f565b610cc9565b005b34801561049d575f5ffd5b506104b860048036038101906104b39190611553565b610ff5565b005b60025f9054906101000a900473ffffffffffffffffffffffffffffffffffffffff1681565b6003602052805f5260405f205f915054906101000a900460ff1681565b5f805461050890611183565b80601f016020809104026020016040519081016040528092919081815260200182805461053490611183565b801561057f5780601f106105565761010080835404028352916020019161057f565b820191905f5260205f20905b81548152906001019060200180831161056257829003601f168201915b505050505081565b6004602052805f5260405f205f915054906101000a900460ff1681565b5f47905090565b5f60035f8373ffffffffffffffffffffffffffffffffffffffff1673ffffffffffffffffffffffffffffffffffffffff1681526020019081526020015f205f9054906101000a900460ff169050919050565b6001805461060a90611183565b80601f016020809104026020016040519081016040528092919081815260200182805461063690611183565b80156106815780601f1061065857610100808354040283529160200191610681565b820191905f5260205f20905b81548152906001019060200180831161066457829003601f168201915b505050505081565b60606005805480602002602001604051908101604052809291908181526020015f905b828210156107f8578382905f5260205f2090600602016040518060c00160405290815f8201548152602001600182015f9054906101000a900473ffffffffffffffffffffffffffffffffffffffff1673ffffffffffffffffffffffffffffffffffffffff1673ffffffffffffffffffffffffffffffffffffffff1681526020016002820154815260200160038201805461074590611183565b80601f016020809104026020016040519081016040528092919081815260200182805461077190611183565b80156107bc5780601f10610793576101008083540402835291602001916107bc565b820191905f5260205f20905b81548152906001019060200180831161079f57829003601f168201915b5050505050815260200160048201548152602001600582015f9054906101000a900460ff161515151581525050815260200190600101906106ac565b50505050905090565b5f73ffffffffffffffffffffffffffffffffffffffff1660025f9054906101000a900473ffffffffffffffffffffffffffffffffffffffff1673ffffffffffffffffffffffffffffffffffffffff1614610890576040517f08c379a000000000000000000000000000000000000000000000000000000000815260040161088790611b55565b60405180910390fd5b8260025f6101000a81548173ffffffffffffffffffffffffffffffffffffffff021916908373ffffffffffffffffffffffffffffffffffffffff160217905550815f90816108de919061135c565b5080600190816108ee919061135c565b50600160035f8573ffffffffffffffffffffffffffffffffffffffff1673ffffffffffffffffffffffffffffffffffffffff1681526020019081526020015f205f6101000a81548160ff021916908315150217905550505050565b60058181548110610958575f80fd5b905f5260205f2090600602015f91509050805f015490806001015f9054906101000a900473ffffffffffffffffffffffffffffffffffffffff16908060020154908060030180546109a890611183565b80601f01602080910402602001604051908101604052809291908181526020018280546109d490611183565b8015610a1f5780601f106109f657610100808354040283529160200191610a1f565b820191905f5260205f20905b815481529060010190602001808311610a0257829003601f168201915b505050505090806004015490806005015f9054906101000a900460ff16905086565b5f3411610a83576040517f08c379a0000000000000000000000000000000000000000000000000000000008152600401610a7a90611bbd565b60405180910390fd5b60045f3373ffffffffffffffffffffffffffffffffffffffff1673ffffffffffffffffffffffffffffffffffffffff1681526020019081526020015f205f9054906101000a900460ff16610b6a57600160045f3373ffffffffffffffffffffffffffffffffffffffff1673ffffffffffffffffffffffffffffffffffffffff1681526020019081526020015f205f6101000a81548160ff0219169083151502179055503373ffffffffffffffffffffffffffffffffffffffff167f7073afa60b48e833a1a66ebb442bc8e0d19e9f3cc05f34bdcd1da22c8d87f27560405160405180910390a25b60056040518060c0016040528060058054905081526020013373ffffffffffffffffffffffffffffffffffffffff16815260200134815260200183815260200142815260200160011515815250908060018154018082558091505060019003905f5260205f2090600602015f909190919091505f820151815f01556020820151816001015f6101000a81548173ffffffffffffffffffffffffffffffffffffffff021916908373ffffffffffffffffffffffffffffffffffffffff160217905550604082015181600201556060820151816003019081610c4a919061135c565b506080820151816004015560a0820151816005015f6101000a81548160ff02191690831515021790555050503373ffffffffffffffffffffffffffffffffffffffff167fd7f601954af96c42bf2a2a63735711dc45868e84ab977017ba3249f742b2133a3483604051610cbe929190611bdb565b60405180910390a250565b60035f3373ffffffffffffffffffffffffffffffffffffffff1673ffffffffffffffffffffffffffffffffffffffff1681526020019081526020015f205f9054906101000a900460ff1680610d6a575060025f9054906101000a900473ffffffffffffffffffffffffffffffffffffffff1673ffffffffffffffffffffffffffffffffffffffff163373ffffffffffffffffffffffffffffffffffffffff16145b610da9576040517f08c379a0000000000000000000000000000000000000000000000000000000008152600401610da090611c53565b60405180910390fd5b81471015610dec576040517f08c379a0000000000000000000000000000000000000000000000000000000008152600401610de390611cbb565b60405180910390fd5b5f8373ffffffffffffffffffffffffffffffffffffffff1683604051610e1190611d06565b5f6040518083038185875af1925050503d805f8114610e4b576040519150601f19603f3d011682016040523d82523d5f602084013e610e50565b606091505b5050905080610e94576040517f08c379a0000000000000000000000000000000000000000000000000000000008152600401610e8b90611d64565b60405180910390fd5b60056040518060c0016040528060058054905081526020013373ffffffffffffffffffffffffffffffffffffffff1681526020018581526020018481526020014281526020015f1515815250908060018154018082558091505060019003905f5260205f2090600602015f909190919091505f820151815f01556020820151816001015f6101000a81548173ffffffffffffffffffffffffffffffffffffffff021916908373ffffffffffffffffffffffffffffffffffffffff160217905550604082015181600201556060820151816003019081610f73919061135c565b506080820151816004015560a0820151816005015f6101000a81548160ff02191690831515021790555050508373ffffffffffffffffffffffffffffffffffffffff167f167f42ca56d792a592ffd9079a115b3b72c1326899a47d26aa65a990d13858238484604051610fe7929190611bdb565b60405180910390a250505050565b60025f9054906101000a900473ffffffffffffffffffffffffffffffffffffffff1673ffffffffffffffffffffffffffffffffffffffff163373ffffffffffffffffffffffffffffffffffffffff1614611084576040517f08c379a000000000000000000000000000000000000000000000000000000000815260040161107b90611dcc565b60405180910390fd5b600160035f8373ffffffffffffffffffffffffffffffffffffffff1673ffffffffffffffffffffffffffffffffffffffff1681526020019081526020015f205f6101000a81548160ff0219169083151502179055508073ffffffffffffffffffffffffffffffffffffffff167f37e96fc6762bae414e69ea6e2490e63bc46f2a1335de0f6b91f49cf808829bcf60405160405180910390a250565b5f81519050919050565b7f4e487b71000000000000000000000000000000000000000000000000000000005f52604160045260245ffd5b7f4e487b71000000000000000000000000000000000000000000000000000000005f52602260045260245ffd5b5f600282049050600182168061119a57607f821691505b6020821081036111ad576111ac611156565b5b50919050565b5f819050815f5260205f209050919050565b5f6020601f8301049050919050565b5f82821b905092915050565b5f6008830261120f7fffffffffffffffffffffffffffffffffffffffffffffffffffffffffffffffff826111d4565b61121986836111d4565b95508019841693508086168417925050509392505050565b5f819050919050565b5f819050919050565b5f61125d61125861125384611231565b61123a565b611231565b9050919050565b5f819050919050565b61127683611243565b61128a61128282611264565b8484546111e0565b825550505050565b5f5f905090565b6112a1611292565b6112ac81848461126d565b505050565b5b818110156112cf576112c45f82611299565b6001810190506112b2565b5050565b601f821115611314576112e5816111b3565b6112ee846111c5565b810160208510156112fd578190505b611311611309856111c5565b8301826112b1565b50505b505050565b5f82821c905092915050565b5f6113345f1984600802611319565b1980831691505092915050565b5f61134c8383611325565b9150826002028217905092915050565b6113658261111f565b67ffffffffffffffff81111561137e5761137d611129565b5b6113888254611183565b6113938282856112d3565b5f60209050601f8311600181146113c4575f84156113b2578287015190505b6113bc8582611341565b865550611423565b601f1984166113d2866111b3565b5f5b828110156113f9578489015182556001820191506020850194506020810190506113d4565b868310156114165784890151611412601f891682611325565b8355505b6001600288020188555050505b505050505050565b61143481611231565b82525050565b5f82825260208201905092915050565b7f446972656374205472616e7366657200000000000000000000000000000000005f82015250565b5f61147e600f8361143a565b91506114898261144a565b602082019050919050565b5f6040820190506114a75f83018461142b565b81810360208301526114b881611472565b905092915050565b5f73ffffffffffffffffffffffffffffffffffffffff82169050919050565b5f6114e9826114c0565b9050919050565b6114f9816114df565b82525050565b5f6020820190506115125f8301846114f0565b92915050565b5f604051905090565b5f5ffd5b5f5ffd5b611532816114df565b811461153c575f5ffd5b50565b5f8135905061154d81611529565b92915050565b5f6020828403121561156857611567611521565b5b5f6115758482850161153f565b91505092915050565b5f8115159050919050565b6115928161157e565b82525050565b5f6020820190506115ab5f830184611589565b92915050565b8281835e5f83830152505050565b5f601f19601f8301169050919050565b5f6115d98261111f565b6115e3818561143a565b93506115f38185602086016115b1565b6115fc816115bf565b840191505092915050565b5f6020820190508181035f83015261161f81846115cf565b905092915050565b5f60208201905061163a5f83018461142b565b92915050565b5f81519050919050565b5f82825260208201905092915050565b5f819050602082019050919050565b61167281611231565b82525050565b611681816114df565b82525050565b5f82825260208201905092915050565b5f6116a18261111f565b6116ab8185611687565b93506116bb8185602086016115b1565b6116c4816115bf565b840191505092915050565b6116d88161157e565b82525050565b5f60c083015f8301516116f35f860182611669565b5060208301516117066020860182611678565b5060408301516117196040860182611669565b50606083015184820360608601526117318282611697565b91505060808301516117466080860182611669565b5060a083015161175960a08601826116cf565b508091505092915050565b5f61176f83836116de565b905092915050565b5f602082019050919050565b5f61178d82611640565b611797818561164a565b9350836020820285016117a98561165a565b805f5b858110156117e457848403895281516117c58582611764565b94506117d083611777565b925060208a019950506001810190506117ac565b50829750879550505050505092915050565b5f6020820190508181035f83015261180e8184611783565b905092915050565b5f5ffd5b5f5ffd5b611827826115bf565b810181811067ffffffffffffffff8211171561184657611845611129565b5b80604052505050565b5f611858611518565b9050611864828261181e565b919050565b5f67ffffffffffffffff82111561188357611882611129565b5b61188c826115bf565b9050602081019050919050565b828183375f83830152505050565b5f6118b96118b484611869565b61184f565b9050828152602081018484840111156118d5576118d461181a565b5b6118e0848285611899565b509392505050565b5f82601f8301126118fc576118fb611816565b5b813561190c8482602086016118a7565b91505092915050565b5f5f5f6060848603121561192c5761192b611521565b5b5f6119398682870161153f565b935050602084013567ffffffffffffffff81111561195a57611959611525565b5b611966868287016118e8565b925050604084013567ffffffffffffffff81111561198757611986611525565b5b611993868287016118e8565b9150509250925092565b6119a681611231565b81146119b0575f5ffd5b50565b5f813590506119c18161199d565b92915050565b5f602082840312156119dc576119db611521565b5b5f6119e9848285016119b3565b91505092915050565b5f60c082019050611a055f83018961142b565b611a1260208301886114f0565b611a1f604083018761142b565b8181036060830152611a3181866115cf565b9050611a40608083018561142b565b611a4d60a0830184611589565b979650505050505050565b5f60208284031215611a6d57611a6c611521565b5b5f82013567ffffffffffffffff811115611a8a57611a89611525565b5b611a96848285016118e8565b91505092915050565b5f5f5f60608486031215611ab657611ab5611521565b5b5f611ac38682870161153f565b9350506020611ad4868287016119b3565b925050604084013567ffffffffffffffff811115611af557611af4611525565b5b611b01868287016118e8565b9150509250925092565b7f416c726561647920696e697469616c697a6564000000000000000000000000005f82015250565b5f611b3f60138361143a565b9150611b4a82611b0b565b602082019050919050565b5f6020820190508181035f830152611b6c81611b33565b9050919050565b7f416d6f756e74206d757374206265203e203000000000000000000000000000005f82015250565b5f611ba760128361143a565b9150611bb282611b73565b602082019050919050565b5f6020820190508181035f830152611bd481611b9b565b9050919050565b5f604082019050611bee5f83018561142b565b8181036020830152611c0081846115cf565b90509392505050565b7f4e6f74206f7267616e697a6572000000000000000000000000000000000000005f82015250565b5f611c3d600d8361143a565b9150611c4882611c09565b602082019050919050565b5f6020820190508181035f830152611c6a81611c31565b9050919050565b7f496e73756666696369656e742062616c616e63650000000000000000000000005f82015250565b5f611ca560148361143a565b9150611cb082611c71565b602082019050919050565b5f6020820190508181035f830152611cd281611c99565b9050919050565b5f81905092915050565b50565b5f611cf15f83611cd9565b9150611cfc82611ce3565b5f82019050919050565b5f611d1082611ce6565b9150819050919050565b7f4661696c656420746f2073656e642045746865720000000000000000000000005f82015250565b5f611d4e60148361143a565b9150611d5982611d1a565b602082019050919050565b5f6020820190508181035f830152611d7b81611d42565b9050919050565b7f4e6f742063726561746f720000000000000000000000000000000000000000005f82015250565b5f611db6600b8361143a565b9150611dc182611d82565b602082019050919050565b5f6020820190508181035f830152611de381611daa565b905091905056fea2646970667358221220dfa120e82b39d489fb5889a36d6421f67707291b2063308af5a9b1920c000e8064736f6c634300081e0033a2646970667358221220874f610c786cf802dbc69c44b76574e0b183c874352a359826e4709bb0c5af5a64736f6c634300081e0033","linkReferences":{}},"methodIdentifiers":{"createPool(string,string)":"5ea81a32","getPools()":"673a2a1f","pools(uint256)":"ac4afa38"},"id":21}