{"abi":[{"type":"receive","stateMutability":"payable"},{"type":"function","name":"addOrganizer","inputs":[{"name":"organizer","type":"address","internalType":"address"}],"outputs":[],"stateMutability":"nonpayable"},{"type":"function","name":"createRule","inputs":[{"name":"_name","type":"string","internalType":"string"},{"name":"_ruleType","type":"uint8","internalType":"enum IAAcountPool.RuleType"},{"name":"_amount","type":"uint256","internalType":"uint256"},{"name":"_description","type":"string","internalType":"string"}],"outputs":[],"stateMutability":"nonpayable"},{"type":"function","name":"creator","inputs":[],"outputs":[{"name":"","type":"address","internalType":"address"}],"stateMutability":"view"},{"type":"function","name":"deposit","inputs":[{"name":"reason","type":"string","internalType":"string"}],"outputs":[],"stateMutability":"payable"},{"type":"function","name":"depositForRule","inputs":[{"name":"ruleId","type":"uint256","internalType":"uint256"},{"name":"reason","type":"string","internalType":"string"}],"outputs":[],"stateMutability":"payable"},{"type":"function","name":"description","inputs":[],"outputs":[{"name":"","type":"string","internalType":"string"}],"stateMutability":"view"},{"type":"function","name":"getBalance","inputs":[],"outputs":[{"name":"","type":"uint256","internalType":"uint256"}],"stateMutability":"view"},{"type":"function","name":"getOrganizers","inputs":[],"outputs":[{"name":"","type":"address[]","internalType":"address[]"}],"stateMutability":"view"},{"type":"function","name":"getRules","inputs":[],"outputs":[{"name":"","type":"tuple[]","internalType":"struct IAAcountPool.Rule[]","components":[{"name":"id","type":"uint256","internalType":"uint256"},{"name":"name","type":"string","internalType":"string"},{"name":"ruleType","type":"uint8","internalType":"enum IAAcountPool.RuleType"},{"name":"amount","type":"uint256","internalType":"uint256"},{"name":"description","type":"string","internalType":"string"},{"name":"active","type":"bool","internalType":"bool"}]}],"stateMutability":"view"},{"type":"function","name":"getTransactions","inputs":[],"outputs":[{"name":"","type":"tuple[]","internalType":"struct IAAcountPool.Transaction[]","components":[{"name":"id","type":"uint256","internalType":"uint256"},{"name":"initiator","type":"address","internalType":"address"},{"name":"amount","type":"uint256","internalType":"uint256"},{"name":"description","type":"string","internalType":"string"},{"name":"timestamp","type":"uint256","internalType":"uint256"},{"name":"activityType","type":"uint8","internalType":"enum IAAcountPool.ActivityType"},{"name":"relatedRuleId","type":"uint256","internalType":"uint256"}]}],"stateMutability":"view"},{"type":"function","name":"initialize","inputs":[{"name":"_creator","type":"address","internalType":"address"},{"name":"_name","type":"string","internalType":"string"},{"name":"_description","type":"string","internalType":"string"}],"outputs":[],"stateMutability":"nonpayable"},{"type":"function","name":"isOrganizer","inputs":[{"name":"account","type":"address","internalType":"address"}],"outputs":[{"name":"","type":"bool","internalType":"bool"}],"stateMutability":"view"},{"type":"function","name":"name","inputs":[],"outputs":[{"name":"","type":"string","internalType":"string"}],"stateMutability":"view"},{"type":"function","name":"organizerList","inputs":[{"name":"","type":"uint256","internalType":"uint256"}],"outputs":[{"name":"","type":"address","internalType":"address"}],"stateMutability":"view"},{"type":"function","name":"organizers","inputs":[{"name":"","type":"address","internalType":"address"}],"outputs":[{"name":"","type":"bool","internalType":"bool"}],"stateMutability":"view"},{"type":"function","name":"participants","inputs":[{"name":"","type":"address","internalType":"address"}],"outputs":[{"name":"","type":"bool","internalType":"bool"}],"stateMutability":"view"},{"type":"function","name":"rules","inputs":[{"name":"","type":"uint256","internalType":"uint256"}],"outputs":[{"name":"id","type":"uint256","internalType":"uint256"},{"name":"name","type":"string","internalType":"string"},{"name":"ruleType","type":"uint8","internalType":"enum IAAcountPool.RuleType"},{"name":"amount","type":"uint256","internalType":"uint256"},{"name":"description","type":"string","internalType":"string"},{"name":"active","type":"bool","internalType":"bool"}],"stateMutability":"view"},{"type":"function","name":"transactions","inputs":[{"name":"","type":"uint256","internalType":"uint256"}],"outputs":[{"name":"id","type":"uint256","internalType":"uint256"},{"name":"initiator","type":"address","internalType":"address"},{"name":"amount","type":"uint256","internalType":"uint256"},{"name":"description","type":"string","internalType":"string"},{"name":"timestamp","type":"uint256","internalType":"uint256"},{"name":"activityType","type":"uint8","internalType":"enum IAAcountPool.ActivityType"},{"name":"relatedRuleId","type":"uint256","internalType":"uint256"}],"stateMutability":"view"},{"type":"function","name":"withdraw","inputs":[{"name":"to","type":"address","internalType":"address"},{"name":"amount","type":"uint256","internalType":"uint256"},{"name":"reason","type":"string","internalType":"string"}],"outputs":[],"stateMutability":"nonpayable"},{"type":"event","name":"Inflow","inputs":[{"name":"sender","type":"address","indexed":true,"internalType":"address"},{"name":"amount","type":"uint256","indexed":false,"internalType":"uint256"},{"name":"reason","type":"string","indexed":false,"internalType":"string"}],"anonymous":false},{"type":"event","name":"Joined","inputs":[{"name":"participant","type":"address","indexed":true,"internalType":"address"}],"anonymous":false},{"type":"event","name":"OrganizerAdded","inputs":[{"name":"organizer","type":"address","indexed":true,"internalType":"address"}],"anonymous":false},{"type":"event","name":"Outflow","inputs":[{"name":"recipient","type":"address","indexed":true,"internalType":"address"},{"name":"amount","type":"uint256","indexed":false,"internalType":"uint256"},{"name":"reason","type":"string","indexed":false,"internalType":"string"}],"anonymous":false},{"type":"event","name":"RuleAdded","inputs":[{"name":"ruleId","type":"uint256","indexed":true,"internalType":"uint256"},{"name":"name","type":"string","indexed":false,"internalType":"string"},{"name":"ruleType","type":"uint8","indexed":false,"internalType":"enum IAAcountPool.RuleType"},{"name":"amount","type":"uint256","indexed":false,"internalType":"uint256"}],"anonymous":false}],"bytecode":{"object":"0x6080604052348015600e575f5ffd5b506131898061001c5f395ff3fe608060405260043610610117575f3560e01c806345e2984a1161009f5780639ace38c2116100635780639ace38c2146103ea578063a26e11861461042c578063bb26b2aa14610448578063e088747b14610484578063e4725f02146104ac5761015f565b806345e2984a146103285780637284e4161461035257806383920e901461037c57806390657147146103a657806390dcf35c146103ce5761015f565b806309e69ede116100e657806309e69ede146102345780630ed5d25e1461027057806312065fe01461029a5780631601d5b1146102c457806341676f15146102ec5761015f565b806302d05d3f1461016357806304d6ded41461018d5780630544c5b9146101ce57806306fdde031461020a5761015f565b3661015f5761015d33346040518060400160405280600f81526020017f446972656374205472616e7366657200000000000000000000000000000000008152505f6104d4565b005b5f5ffd5b34801561016e575f5ffd5b506101776108bc565b6040516101849190611e26565b60405180910390f35b348015610198575f5ffd5b506101b360048036038101906101ae9190611e83565b6108e1565b6040516101c596959493929190611fba565b60405180910390f35b3480156101d9575f5ffd5b506101f460048036038101906101ef9190612051565b610a4c565b604051610201919061207c565b60405180910390f35b348015610215575f5ffd5b5061021e610a69565b60405161022b9190612095565b60405180910390f35b34801561023f575f5ffd5b5061025a60048036038101906102559190612051565b610af4565b604051610267919061207c565b60405180910390f35b34801561027b575f5ffd5b50610284610b11565b604051610291919061216c565b60405180910390f35b3480156102a5575f5ffd5b506102ae610b9c565b6040516102bb919061218c565b60405180910390f35b3480156102cf575f5ffd5b506102ea60048036038101906102e591906122f4565b610ba3565b005b3480156102f7575f5ffd5b50610312600480360381019061030d9190612051565b610dd3565b60405161031f919061207c565b60405180910390f35b348015610333575f5ffd5b5061033c610e25565b604051610349919061254d565b60405180910390f35b34801561035d575f5ffd5b50610366611008565b6040516103739190612095565b60405180910390f35b348015610387575f5ffd5b50610390611094565b60405161039d9190612707565b60405180910390f35b3480156103b1575f5ffd5b506103cc60048036038101906103c79190612727565b611236565b005b6103e860048036038101906103e391906127af565b6113de565b005b3480156103f5575f5ffd5b50610410600480360381019061040b9190611e83565b61157b565b6040516104239796959493929190612818565b60405180910390f35b6104466004803603810190610441919061288c565b611679565b005b348015610453575f5ffd5b5061046e60048036038101906104699190611e83565b6116ca565b60405161047b9190611e26565b60405180910390f35b34801561048f575f5ffd5b506104aa60048036038101906104a591906128d3565b611705565b005b3480156104b7575f5ffd5b506104d260048036038101906104cd9190612051565b611a62565b005b60045f8573ffffffffffffffffffffffffffffffffffffffff1673ffffffffffffffffffffffffffffffffffffffff1681526020019081526020015f205f9054906101000a900460ff1661072b57600160045f8673ffffffffffffffffffffffffffffffffffffffff1673ffffffffffffffffffffffffffffffffffffffff1681526020019081526020015f205f6101000a81548160ff0219169083151502179055508373ffffffffffffffffffffffffffffffffffffffff167f7073afa60b48e833a1a66ebb442bc8e0d19e9f3cc05f34bdcd1da22c8d87f27560405160405180910390a260056040518060e0016040528060058054905081526020018673ffffffffffffffffffffffffffffffffffffffff1681526020015f81526020016040518060400160405280600b81526020017f4a6f696e656420506f6f6c000000000000000000000000000000000000000000815250815260200142815260200160038081111561064857610647611f2d565b5b81526020015f815250908060018154018082558091505060019003905f5260205f2090600702015f909190919091505f820151815f01556020820151816001015f6101000a81548173ffffffffffffffffffffffffffffffffffffffff021916908373ffffffffffffffffffffffffffffffffffffffff1602179055506040820151816002015560608201518160030190816106e49190612b3c565b506080820151816004015560a0820151816005015f6101000a81548160ff0219169083600381111561071957610718611f2d565b5b021790555060c0820151816006015550505b60056040518060e0016040528060058054905081526020018673ffffffffffffffffffffffffffffffffffffffff1681526020018581526020018481526020014281526020015f600381111561078457610783611f2d565b5b815260200183815250908060018154018082558091505060019003905f5260205f2090600702015f909190919091505f820151815f01556020820151816001015f6101000a81548173ffffffffffffffffffffffffffffffffffffffff021916908373ffffffffffffffffffffffffffffffffffffffff1602179055506040820151816002015560608201518160030190816108209190612b3c565b506080820151816004015560a0820151816005015f6101000a81548160ff0219169083600381111561085557610854611f2d565b5b021790555060c0820151816006015550508373ffffffffffffffffffffffffffffffffffffffff167fd7f601954af96c42bf2a2a63735711dc45868e84ab977017ba3249f742b2133a84846040516108ae929190612c0b565b60405180910390a250505050565b60025f9054906101000a900473ffffffffffffffffffffffffffffffffffffffff1681565b600781815481106108f0575f80fd5b905f5260205f2090600602015f91509050805f0154908060010180546109159061296c565b80601f01602080910402602001604051908101604052809291908181526020018280546109419061296c565b801561098c5780601f106109635761010080835404028352916020019161098c565b820191905f5260205f20905b81548152906001019060200180831161096f57829003601f168201915b505050505090806002015f9054906101000a900460ff16908060030154908060040180546109b99061296c565b80601f01602080910402602001604051908101604052809291908181526020018280546109e59061296c565b8015610a305780601f10610a0757610100808354040283529160200191610a30565b820191905f5260205f20905b815481529060010190602001808311610a1357829003601f168201915b505050505090806005015f9054906101000a900460ff16905086565b6003602052805f5260405f205f915054906101000a900460ff1681565b5f8054610a759061296c565b80601f0160208091040260200160405190810160405280929190818152602001828054610aa19061296c565b8015610aec5780601f10610ac357610100808354040283529160200191610aec565b820191905f5260205f20905b815481529060010190602001808311610acf57829003601f168201915b505050505081565b6004602052805f5260405f205f915054906101000a900460ff1681565b60606006805480602002602001604051908101604052809291908181526020018280548015610b9257602002820191905f5260205f20905b815f9054906101000a900473ffffffffffffffffffffffffffffffffffffffff1673ffffffffffffffffffffffffffffffffffffffff1681526020019060010190808311610b49575b5050505050905090565b5f47905090565b60035f3373ffffffffffffffffffffffffffffffffffffffff1673ffffffffffffffffffffffffffffffffffffffff1681526020019081526020015f205f9054906101000a900460ff1680610c44575060025f9054906101000a900473ffffffffffffffffffffffffffffffffffffffff1673ffffffffffffffffffffffffffffffffffffffff163373ffffffffffffffffffffffffffffffffffffffff16145b610c83576040517f08c379a0000000000000000000000000000000000000000000000000000000008152600401610c7a90612c83565b60405180910390fd5b60076040518060c001604052806007805490508152602001868152602001856001811115610cb457610cb3611f2d565b5b815260200184815260200183815260200160011515815250908060018154018082558091505060019003905f5260205f2090600602015f909190919091505f820151815f01556020820151816001019081610d0f9190612b3c565b506040820151816002015f6101000a81548160ff02191690836001811115610d3a57610d39611f2d565b5b0217905550606082015181600301556080820151816004019081610d5e9190612b3c565b5060a0820151816005015f6101000a81548160ff02191690831515021790555050506001600780549050610d929190612cce565b7f646172869b767c13188cbe4ab78202e5400cadfbf6cd40b54607f0ce19e412c1858585604051610dc593929190612d01565b60405180910390a250505050565b5f60035f8373ffffffffffffffffffffffffffffffffffffffff1673ffffffffffffffffffffffffffffffffffffffff1681526020019081526020015f205f9054906101000a900460ff169050919050565b60606007805480602002602001604051908101604052809291908181526020015f905b82821015610fff578382905f5260205f2090600602016040518060c00160405290815f8201548152602001600182018054610e829061296c565b80601f0160208091040260200160405190810160405280929190818152602001828054610eae9061296c565b8015610ef95780601f10610ed057610100808354040283529160200191610ef9565b820191905f5260205f20905b815481529060010190602001808311610edc57829003601f168201915b50505050508152602001600282015f9054906101000a900460ff166001811115610f2657610f25611f2d565b5b6001811115610f3857610f37611f2d565b5b815260200160038201548152602001600482018054610f569061296c565b80601f0160208091040260200160405190810160405280929190818152602001828054610f829061296c565b8015610fcd5780601f10610fa457610100808354040283529160200191610fcd565b820191905f5260205f20905b815481529060010190602001808311610fb057829003601f168201915b50505050508152602001600582015f9054906101000a900460ff16151515158152505081526020019060010190610e48565b50505050905090565b600180546110159061296c565b80601f01602080910402602001604051908101604052809291908181526020018280546110419061296c565b801561108c5780601f106110635761010080835404028352916020019161108c565b820191905f5260205f20905b81548152906001019060200180831161106f57829003601f168201915b505050505081565b60606005805480602002602001604051908101604052809291908181526020015f905b8282101561122d578382905f5260205f2090600702016040518060e00160405290815f8201548152602001600182015f9054906101000a900473ffffffffffffffffffffffffffffffffffffffff1673ffffffffffffffffffffffffffffffffffffffff1673ffffffffffffffffffffffffffffffffffffffff168152602001600282015481526020016003820180546111509061296c565b80601f016020809104026020016040519081016040528092919081815260200182805461117c9061296c565b80156111c75780601f1061119e576101008083540402835291602001916111c7565b820191905f5260205f20905b8154815290600101906020018083116111aa57829003601f168201915b5050505050815260200160048201548152602001600582015f9054906101000a900460ff1660038111156111fe576111fd611f2d565b5b60038111156112105761120f611f2d565b5b8152602001600682015481525050815260200190600101906110b7565b50505050905090565b5f73ffffffffffffffffffffffffffffffffffffffff1660025f9054906101000a900473ffffffffffffffffffffffffffffffffffffffff1673ffffffffffffffffffffffffffffffffffffffff16146112c5576040517f08c379a00000000000000000000000000000000000000000000000000000000081526004016112bc90612d87565b60405180910390fd5b8260025f6101000a81548173ffffffffffffffffffffffffffffffffffffffff021916908373ffffffffffffffffffffffffffffffffffffffff160217905550815f90816113139190612b3c565b5080600190816113239190612b3c565b50600160035f8573ffffffffffffffffffffffffffffffffffffffff1673ffffffffffffffffffffffffffffffffffffffff1681526020019081526020015f205f6101000a81548160ff021916908315150217905550600683908060018154018082558091505060019003905f5260205f20015f9091909190916101000a81548173ffffffffffffffffffffffffffffffffffffffff021916908373ffffffffffffffffffffffffffffffffffffffff160217905550505050565b5f3411611420576040517f08c379a000000000000000000000000000000000000000000000000000000000815260040161141790612def565b60405180910390fd5b6007805490508210611467576040517f08c379a000000000000000000000000000000000000000000000000000000000815260040161145e90612e57565b60405180910390fd5b5f600181111561147a57611479611f2d565b5b6007838154811061148e5761148d612e75565b5b905f5260205f2090600602016002015f9054906101000a900460ff1660018111156114bc576114bb611f2d565b5b146114fc576040517f08c379a00000000000000000000000000000000000000000000000000000000081526004016114f390612eec565b60405180910390fd5b600782815481106115105761150f612e75565b5b905f5260205f2090600602016005015f9054906101000a900460ff1661156b576040517f08c379a000000000000000000000000000000000000000000000000000000000815260040161156290612f54565b60405180910390fd5b611577333483856104d4565b5050565b6005818154811061158a575f80fd5b905f5260205f2090600702015f91509050805f015490806001015f9054906101000a900473ffffffffffffffffffffffffffffffffffffffff16908060020154908060030180546115da9061296c565b80601f01602080910402602001604051908101604052809291908181526020018280546116069061296c565b80156116515780601f1061162857610100808354040283529160200191611651565b820191905f5260205f20905b81548152906001019060200180831161163457829003601f168201915b505050505090806004015490806005015f9054906101000a900460ff16908060060154905087565b5f34116116bb576040517f08c379a00000000000000000000000000000000000000000000000000000000081526004016116b290612def565b60405180910390fd5b6116c73334835f6104d4565b50565b600681815481106116d9575f80fd5b905f5260205f20015f915054906101000a900473ffffffffffffffffffffffffffffffffffffffff1681565b60035f3373ffffffffffffffffffffffffffffffffffffffff1673ffffffffffffffffffffffffffffffffffffffff1681526020019081526020015f205f9054906101000a900460ff16806117a6575060025f9054906101000a900473ffffffffffffffffffffffffffffffffffffffff1673ffffffffffffffffffffffffffffffffffffffff163373ffffffffffffffffffffffffffffffffffffffff16145b6117e5576040517f08c379a00000000000000000000000000000000000000000000000000000000081526004016117dc90612c83565b60405180910390fd5b81471015611828576040517f08c379a000000000000000000000000000000000000000000000000000000000815260040161181f90612fbc565b60405180910390fd5b5f8373ffffffffffffffffffffffffffffffffffffffff168360405161184d90613007565b5f6040518083038185875af1925050503d805f8114611887576040519150601f19603f3d011682016040523d82523d5f602084013e61188c565b606091505b50509050806118d0576040517f08c379a00000000000000000000000000000000000000000000000000000000081526004016118c790613065565b60405180910390fd5b60056040518060e0016040528060058054905081526020013373ffffffffffffffffffffffffffffffffffffffff1681526020018581526020018481526020014281526020016001600381111561192a57611929611f2d565b5b81526020015f815250908060018154018082558091505060019003905f5260205f2090600702015f909190919091505f820151815f01556020820151816001015f6101000a81548173ffffffffffffffffffffffffffffffffffffffff021916908373ffffffffffffffffffffffffffffffffffffffff1602179055506040820151816002015560608201518160030190816119c69190612b3c565b506080820151816004015560a0820151816005015f6101000a81548160ff021916908360038111156119fb576119fa611f2d565b5b021790555060c0820151816006015550508373ffffffffffffffffffffffffffffffffffffffff167f167f42ca56d792a592ffd9079a115b3b72c1326899a47d26aa65a990d13858238484604051611a54929190612c0b565b60405180910390a250505050565b60025f9054906101000a900473ffffffffffffffffffffffffffffffffffffffff1673ffffffffffffffffffffffffffffffffffffffff163373ffffffffffffffffffffffffffffffffffffffff1614611af1576040517f08c379a0000000000000000000000000000000000000000000000000000000008152600401611ae8906130cd565b60405180910390fd5b60035f8273ffffffffffffffffffffffffffffffffffffffff1673ffffffffffffffffffffffffffffffffffffffff1681526020019081526020015f205f9054906101000a900460ff1615611b7b576040517f08c379a0000000000000000000000000000000000000000000000000000000008152600401611b7290613135565b60405180910390fd5b600160035f8373ffffffffffffffffffffffffffffffffffffffff1673ffffffffffffffffffffffffffffffffffffffff1681526020019081526020015f205f6101000a81548160ff021916908315150217905550600681908060018154018082558091505060019003905f5260205f20015f9091909190916101000a81548173ffffffffffffffffffffffffffffffffffffffff021916908373ffffffffffffffffffffffffffffffffffffffff16021790555060056040518060e0016040528060058054905081526020013373ffffffffffffffffffffffffffffffffffffffff1681526020015f81526020016040518060400160405280600f81526020017f4164646564204f7267616e697a65720000000000000000000000000000000000815250815260200142815260200160026003811115611cbf57611cbe611f2d565b5b81526020015f815250908060018154018082558091505060019003905f5260205f2090600702015f909190919091505f820151815f01556020820151816001015f6101000a81548173ffffffffffffffffffffffffffffffffffffffff021916908373ffffffffffffffffffffffffffffffffffffffff160217905550604082015181600201556060820151816003019081611d5b9190612b3c565b506080820151816004015560a0820151816005015f6101000a81548160ff02191690836003811115611d9057611d8f611f2d565b5b021790555060c0820151816006015550508073ffffffffffffffffffffffffffffffffffffffff167f37e96fc6762bae414e69ea6e2490e63bc46f2a1335de0f6b91f49cf808829bcf60405160405180910390a250565b5f73ffffffffffffffffffffffffffffffffffffffff82169050919050565b5f611e1082611de7565b9050919050565b611e2081611e06565b82525050565b5f602082019050611e395f830184611e17565b92915050565b5f604051905090565b5f5ffd5b5f5ffd5b5f819050919050565b611e6281611e50565b8114611e6c575f5ffd5b50565b5f81359050611e7d81611e59565b92915050565b5f60208284031215611e9857611e97611e48565b5b5f611ea584828501611e6f565b91505092915050565b611eb781611e50565b82525050565b5f81519050919050565b5f82825260208201905092915050565b8281835e5f83830152505050565b5f601f19601f8301169050919050565b5f611eff82611ebd565b611f098185611ec7565b9350611f19818560208601611ed7565b611f2281611ee5565b840191505092915050565b7f4e487b71000000000000000000000000000000000000000000000000000000005f52602160045260245ffd5b60028110611f6b57611f6a611f2d565b5b50565b5f819050611f7b82611f5a565b919050565b5f611f8a82611f6e565b9050919050565b611f9a81611f80565b82525050565b5f8115159050919050565b611fb481611fa0565b82525050565b5f60c082019050611fcd5f830189611eae565b8181036020830152611fdf8188611ef5565b9050611fee6040830187611f91565b611ffb6060830186611eae565b818103608083015261200d8185611ef5565b905061201c60a0830184611fab565b979650505050505050565b61203081611e06565b811461203a575f5ffd5b50565b5f8135905061204b81612027565b92915050565b5f6020828403121561206657612065611e48565b5b5f6120738482850161203d565b91505092915050565b5f60208201905061208f5f830184611fab565b92915050565b5f6020820190508181035f8301526120ad8184611ef5565b905092915050565b5f81519050919050565b5f82825260208201905092915050565b5f819050602082019050919050565b6120e781611e06565b82525050565b5f6120f883836120de565b60208301905092915050565b5f602082019050919050565b5f61211a826120b5565b61212481856120bf565b935061212f836120cf565b805f5b8381101561215f57815161214688826120ed565b975061215183612104565b925050600181019050612132565b5085935050505092915050565b5f6020820190508181035f8301526121848184612110565b905092915050565b5f60208201905061219f5f830184611eae565b92915050565b5f5ffd5b5f5ffd5b7f4e487b71000000000000000000000000000000000000000000000000000000005f52604160045260245ffd5b6121e382611ee5565b810181811067ffffffffffffffff82111715612202576122016121ad565b5b80604052505050565b5f612214611e3f565b905061222082826121da565b919050565b5f67ffffffffffffffff82111561223f5761223e6121ad565b5b61224882611ee5565b9050602081019050919050565b828183375f83830152505050565b5f61227561227084612225565b61220b565b905082815260208101848484011115612291576122906121a9565b5b61229c848285612255565b509392505050565b5f82601f8301126122b8576122b76121a5565b5b81356122c8848260208601612263565b91505092915050565b600281106122dd575f5ffd5b50565b5f813590506122ee816122d1565b92915050565b5f5f5f5f6080858703121561230c5761230b611e48565b5b5f85013567ffffffffffffffff81111561232957612328611e4c565b5b612335878288016122a4565b9450506020612346878288016122e0565b935050604061235787828801611e6f565b925050606085013567ffffffffffffffff81111561237857612377611e4c565b5b612384878288016122a4565b91505092959194509250565b5f81519050919050565b5f82825260208201905092915050565b5f819050602082019050919050565b6123c281611e50565b82525050565b5f82825260208201905092915050565b5f6123e282611ebd565b6123ec81856123c8565b93506123fc818560208601611ed7565b61240581611ee5565b840191505092915050565b61241981611f80565b82525050565b61242881611fa0565b82525050565b5f60c083015f8301516124435f8601826123b9565b506020830151848203602086015261245b82826123d8565b91505060408301516124706040860182612410565b50606083015161248360608601826123b9565b506080830151848203608086015261249b82826123d8565b91505060a08301516124b060a086018261241f565b508091505092915050565b5f6124c6838361242e565b905092915050565b5f602082019050919050565b5f6124e482612390565b6124ee818561239a565b935083602082028501612500856123aa565b805f5b8581101561253b578484038952815161251c85826124bb565b9450612527836124ce565b925060208a01995050600181019050612503565b50829750879550505050505092915050565b5f6020820190508181035f83015261256581846124da565b905092915050565b5f81519050919050565b5f82825260208201905092915050565b5f819050602082019050919050565b600481106125a7576125a6611f2d565b5b50565b5f8190506125b782612596565b919050565b5f6125c6826125aa565b9050919050565b6125d6816125bc565b82525050565b5f60e083015f8301516125f15f8601826123b9565b50602083015161260460208601826120de565b50604083015161261760408601826123b9565b506060830151848203606086015261262f82826123d8565b915050608083015161264460808601826123b9565b5060a083015161265760a08601826125cd565b5060c083015161266a60c08601826123b9565b508091505092915050565b5f61268083836125dc565b905092915050565b5f602082019050919050565b5f61269e8261256d565b6126a88185612577565b9350836020820285016126ba85612587565b805f5b858110156126f557848403895281516126d68582612675565b94506126e183612688565b925060208a019950506001810190506126bd565b50829750879550505050505092915050565b5f6020820190508181035f83015261271f8184612694565b905092915050565b5f5f5f6060848603121561273e5761273d611e48565b5b5f61274b8682870161203d565b935050602084013567ffffffffffffffff81111561276c5761276b611e4c565b5b612778868287016122a4565b925050604084013567ffffffffffffffff81111561279957612798611e4c565b5b6127a5868287016122a4565b9150509250925092565b5f5f604083850312156127c5576127c4611e48565b5b5f6127d285828601611e6f565b925050602083013567ffffffffffffffff8111156127f3576127f2611e4c565b5b6127ff858286016122a4565b9150509250929050565b612812816125bc565b82525050565b5f60e08201905061282b5f83018a611eae565b6128386020830189611e17565b6128456040830188611eae565b81810360608301526128578187611ef5565b90506128666080830186611eae565b61287360a0830185612809565b61288060c0830184611eae565b98975050505050505050565b5f602082840312156128a1576128a0611e48565b5b5f82013567ffffffffffffffff8111156128be576128bd611e4c565b5b6128ca848285016122a4565b91505092915050565b5f5f5f606084860312156128ea576128e9611e48565b5b5f6128f78682870161203d565b935050602061290886828701611e6f565b925050604084013567ffffffffffffffff81111561292957612928611e4c565b5b612935868287016122a4565b9150509250925092565b7f4e487b71000000000000000000000000000000000000000000000000000000005f52602260045260245ffd5b5f600282049050600182168061298357607f821691505b6020821081036129965761299561293f565b5b50919050565b5f819050815f5260205f209050919050565b5f6020601f8301049050919050565b5f82821b905092915050565b5f600883026129f87fffffffffffffffffffffffffffffffffffffffffffffffffffffffffffffffff826129bd565b612a0286836129bd565b95508019841693508086168417925050509392505050565b5f819050919050565b5f612a3d612a38612a3384611e50565b612a1a565b611e50565b9050919050565b5f819050919050565b612a5683612a23565b612a6a612a6282612a44565b8484546129c9565b825550505050565b5f5f905090565b612a81612a72565b612a8c818484612a4d565b505050565b5b81811015612aaf57612aa45f82612a79565b600181019050612a92565b5050565b601f821115612af457612ac58161299c565b612ace846129ae565b81016020851015612add578190505b612af1612ae9856129ae565b830182612a91565b50505b505050565b5f82821c905092915050565b5f612b145f1984600802612af9565b1980831691505092915050565b5f612b2c8383612b05565b9150826002028217905092915050565b612b4582611ebd565b67ffffffffffffffff811115612b5e57612b5d6121ad565b5b612b68825461296c565b612b73828285612ab3565b5f60209050601f831160018114612ba4575f8415612b92578287015190505b612b9c8582612b21565b865550612c03565b601f198416612bb28661299c565b5f5b82811015612bd957848901518255600182019150602085019450602081019050612bb4565b86831015612bf65784890151612bf2601f891682612b05565b8355505b6001600288020188555050505b505050505050565b5f604082019050612c1e5f830185611eae565b8181036020830152612c308184611ef5565b90509392505050565b7f4e6f74206f7267616e697a6572000000000000000000000000000000000000005f82015250565b5f612c6d600d83611ec7565b9150612c7882612c39565b602082019050919050565b5f6020820190508181035f830152612c9a81612c61565b9050919050565b7f4e487b71000000000000000000000000000000000000000000000000000000005f52601160045260245ffd5b5f612cd882611e50565b9150612ce383611e50565b9250828203905081811115612cfb57612cfa612ca1565b5b92915050565b5f6060820190508181035f830152612d198186611ef5565b9050612d286020830185611f91565b612d356040830184611eae565b949350505050565b7f416c726561647920696e697469616c697a6564000000000000000000000000005f82015250565b5f612d71601383611ec7565b9150612d7c82612d3d565b602082019050919050565b5f6020820190508181035f830152612d9e81612d65565b9050919050565b7f416d6f756e74206d757374206265203e203000000000000000000000000000005f82015250565b5f612dd9601283611ec7565b9150612de482612da5565b602082019050919050565b5f6020820190508181035f830152612e0681612dcd565b9050919050565b7f496e76616c69642052756c6520494400000000000000000000000000000000005f82015250565b5f612e41600f83611ec7565b9150612e4c82612e0d565b602082019050919050565b5f6020820190508181035f830152612e6e81612e35565b9050919050565b7f4e487b71000000000000000000000000000000000000000000000000000000005f52603260045260245ffd5b7f4e6f7420494e464c4f572072756c6500000000000000000000000000000000005f82015250565b5f612ed6600f83611ec7565b9150612ee182612ea2565b602082019050919050565b5f6020820190508181035f830152612f0381612eca565b9050919050565b7f52756c65206e6f742061637469766500000000000000000000000000000000005f82015250565b5f612f3e600f83611ec7565b9150612f4982612f0a565b602082019050919050565b5f6020820190508181035f830152612f6b81612f32565b9050919050565b7f496e73756666696369656e742062616c616e63650000000000000000000000005f82015250565b5f612fa6601483611ec7565b9150612fb182612f72565b602082019050919050565b5f6020820190508181035f830152612fd381612f9a565b9050919050565b5f81905092915050565b50565b5f612ff25f83612fda565b9150612ffd82612fe4565b5f82019050919050565b5f61301182612fe7565b9150819050919050565b7f4661696c656420746f2073656e642045746865720000000000000000000000005f82015250565b5f61304f601483611ec7565b915061305a8261301b565b602082019050919050565b5f6020820190508181035f83015261307c81613043565b9050919050565b7f4e6f742063726561746f720000000000000000000000000000000000000000005f82015250565b5f6130b7600b83611ec7565b91506130c282613083565b602082019050919050565b5f6020820190508181035f8301526130e4816130ab565b9050919050565b7f416c7265616479206f7267616e697a65720000000000000000000000000000005f82015250565b5f61311f601183611ec7565b915061312a826130eb565b602082019050919050565b5f6020820190508181035f83015261314c81613113565b905091905056fea264697066735822122078a35922f2b5939f25f86680a5839d8787236ecea88c6d33969ac91110796abb64736f6c634300081e0033","linkReferences":{}},"methodIdentifiers":{"addOrganizer(address)":"e4725f02","createRule(string,uint8,uint256,string)":"1601d5b1","creator()":"02d05d3f","deposit(string)":"a26e1186","depositForRule(uint256,string)":"90dcf35c","description()":"7284e416","getBalance()":"12065fe0","getOrganizers()":"0ed5d25e","getRules()":"45e2984a","getTransactions()":"83920e90","initialize(address,string,string)":"90657147","isOrganizer(address)":"41676f15","name()":"06fdde03","organizerList(uint256)":"bb26b2aa","organizers(address)":"0544c5b9","participants(address)":"09e69ede","rules(uint256)":"04d6ded4","transactions(uint256)":"9ace38c2","withdraw(address,uint256,string)":"e088747b"},"id":17}